:020000040800F2
:1000000010040020D5000008D50A0008350A0008B1
:1000100000000000000000000000000000000000E0
:10002000000000000000000000000000D90A0008E5
:100030000000000000000000D70A0008DB0A0008EA
:10004000E7000008E7000008E7000008E7000008F4
:10005000E7000008E700000865010008E700000865
:1000600000000000E7000008E7000008E7000008C3
:10007000E7000008E7000008E7000008E7000008C4
:10008000E7000008E7000008E7000008E7000008B4
:1000900000000000E7000008E7000008E700000893
:1000A000E7000008E7000008E7000008E700000894
:1000B000E7000008E7000008000000000000000062
:1000C0000348854600F03CF800480047A10B0008B3
:1000D000100400200448804704480047FEE7FEE77C
:1000E000FEE7FEE7FEE7FEE72D0B0008C100000873
:1000F00030B50B46014600202022012409E00D46C0
:10010000D5409D4205D31D469540491B2546954047
:1001100040191546521E002DF1DC30BDD2B201E06F
:100120000270401C491EFBD270470022F6E710B552
:1001300013460A4604461946FFF7F0FF204610BD55
:10014000064C0125064E05E0E36807CC2B430C3C2A
:1001500098471034B442F7D3FFF7B6FF140C0008E9
:10016000340C000810B5034940208861042000F0D9
:1001700017F810BD0004005070B5044600F0C6F832
:100180000546601C02D004484068241800F0BEF800
:10019000401BA042FAD370BD000000207047000051
:1001A00070B5084D0446E868204203D0EC60204654
:1001B00000F00AF82869204203D02C612046FFF79E
:1001C000EDFF70BD0018024070470000F0B500233D
:1001D00088E001229A409446144022007ED04C6868
:1001E000022C01D0122C0CD1DC08A40027183C6A88
:1001F0005D07ED0E0F26AE40B4430E69AE402643B8
:100200003E6205685E000324B4400F79A543BF0732
:10021000BF0FB7402F4307604D68012D05D0022D59
:1002200003D0112D01D0122D0ED18568CF68A543C2
:10023000B7402F43876047686546AF430D79ED06A9
:10024000ED0F9D403D434560C568A5438C68B440B3
:100250002C43C4604C68E40043D59D08244CAD0099
:100260002F193C6E9D07EE0E0F25B540AC430525BA
:100270002D07A84201D100250FE01E4DA84201D153
:1002800001250AE01C4DA84201D1022505E01B4DC5
:10029000A84201D1032500E00525B5402543144CB3
:1002A0003D66134D80352E684F689643FF0300D599
:1002B00016432E606E684F689643BF0300D5164301
:1002C0006E6025684E689543F60200D5154325609B
:1002D00065684E689543B60202D500E001E015431B
:1002E00065605B1C0A681446DA4000D071E7F0BD17
:1002F000001802400004005000080050000C00509C
:10030000002A01D08161704781627047014880688E
:100310007047000000000020024881684268891888
:10032000816070470000002010B508480024016873
:10033000821511430160204600F00AF8002801D020
:10034000012401E000F028F8204610BD0020024002
:1003500070B50F4E002471680546002915D07D2028
:10036000C000FFF7C5FE01460A480068FFF7C0FE5F
:1003700000F048FB002808D1042D06D200222946AF
:10038000401E00F02BF8356000E00124204670BDCF
:10039000000000200C00002008B509480168012277
:1003A0001143016000681040009005484038C26B5E
:1003B00001040A43C263C06B0840009008BD0000FE
:1003C00040100240002805DBC106C90E012088400C
:1003D000014908607047000000E100E010B500F03E
:1003E000ADFB10BD10B50F4C2168032252029143A2
:1003F00001432160C11FFF39FA390ED10A48062195
:10040000006848430949FFF773FE401C02E00028DA
:1004100005D0401E61694905F9D4002010BD0320B4
:1004200010BD0000007000400C00002040420F0092
:10043000F8B50F46060043D04D4D28684007400FE1
:10044000B84213D22868C008C00038432860FFF7BC
:100450005DFF044605E0FFF759FF011B4548814257
:1004600061D828684007400FB842F4D13068424C48
:1004700081070DD5400704D5A0680721090308436B
:10048000A060A0680F2109028843B1680843A060FA
:100490003078C00732D0706801280AD002280BD00B
:1004A00000280FD03449403103280ED0C96989078C
:1004B00004E02168890301E021688901002906DB45
:1004C0000120F8BD21684905F8E7096AEFE7A1684E
:1004D000C908C9000143A160FFF718FF009006E0BA
:1004E000FFF714FF0099411A224881421BD8A068E7
:1004F000382108407168C9008842F1D12868400756
:10050000400FB84217D91A480168C908C9003943D1
:100510000160FFF7FBFE054607E0FFF7F7FE411B12
:100520001448814201D90320F8BD114800684007F2
:10053000400FB842F1D13078400706D5A0680721B6
:1005400009038843F1680843A06000F01DF8A16822
:100550003C2289091140094A515CC906C90EC840AC
:100560000749086007480068FFF7F2FEF8BD000081
:10057000002002408813000000100240D40B000845
:100580000C0000200000002010B5204CA068204A7C
:100590008006400F16D0A0688006410F5010012938
:1005A0000FD0A1688906490F022912D0A0688006E1
:1005B000400F042823D0A0688006400F032821D0D4
:1005C000002010BD206801218004400F81401046AA
:1005D00012E0E1688B07E1689B0F4906490F491C4F
:1005E000032B00D01046FFF783FDE1684904490E54
:1005F0004843E168490F491CFFF77AFD10BD01200F
:10060000C00310BD7D20000210BD0000001002409C
:100610000024F400F8B504007ED020783827C00705
:10062000EF4D002846D0A868E96838408907890F4F
:10063000102802D008280BD001E0032908D001209F
:100640006268000482420AD129680143296015E0EA
:10065000286880032ED560680028DDD02AE00523B5
:1006600001211B0489049A422A6802D10A432A60A4
:10067000EAE782432A602868884328606068002887
:100680000CD0FFF743FE064604E0FFF73FFE801B59
:10069000642873D828688003F7D50BE0FFF736FE8F
:1006A000064604E0FFF732FE801B6428F1D8286874
:1006B0008003F7D42078800769D5A868E9683840B6
:1006C0008A070721920FC902102802D0002813D0F0
:1006D00001E0022A10D0E068002846D0286888434C
:1006E0002169084328602868FF21013108432860F8
:1006F000FFF70CFE06462CE02A68520502D5E26898
:10070000002A89D06A687F231B029A4363691B020F
:100710001A436A60002800E08DE00ED12868884303
:10072000216908432860286801218004400F814026
:10073000AC48FFF7DDFCAC490860AC480068FFF747
:1007400007FE002877D122E0FFF7E0FD801B02289A
:100750009FD828684005F7D568687F21090288433B
:10076000616909020843686011E02968FF200130CF
:1007700081432960FFF7CAFD064605E098E0FFF7D0
:10078000C5FD801B022884D828684005F7D420784E
:10079000974E00072ED5A8688006400F03280AD080
:1007A000A0690028306A16D0012108433062FFF7A3
:1007B000ADFD07460BE0306A80071BD5A069002815
:1007C0009FD017E0FFF7A2FDC01B022870D8306A47
:1007D0008007F7D50EE0400840003062FFF796FD35
:1007E000074604E0FFF792FDC01B022860D8306A7C
:1007F0008007F7D4207840076CD5A86800278006CA
:10080000400F042818D0E86BC00008D4E96B012021
:1008100000070143E963E96B014001270091754836
:100820000168C90519D40168821511430160FFF7F9
:100830006DFD00900DE083E0F06980074AD5A06867
:1008400000287DD046E0FFF761FD0099401A02289C
:100850002ED868480068C005F5D5A168012910D0D8
:1008600004200529F16911D049084900F161F169B5
:100870008143F161A068002816D0FFF747FD009082
:100880000EE0F06901210843F061F3E70143F161F3
:10089000F7E7FFF73BFD0099411A574881426FD8AF
:1008A000F0698007F5D50EE0FFF730FD009007E016
:1008B00066E0FFF72BFD0099411A4F4881425FD84F
:1008C000F0698007F5D4002F04D0E86B01210907F7
:1008D0008843E863E06900287FD0A9688906490F4A
:1008E000022953D001263606022828680DD0B043CD
:1008F0002860E86880088000E860E8683F490840B0
:10090000E860FFF703FD04463CE0B0432860FFF7D2
:10091000FDFC074604E0FFF7F9FCC01B02282FD8B6
:1009200028688001F7D4616A206AA26A0843E16AF4
:10093000120211430843216B0843616B084300E036
:1009400049E0E9682E4A11400843E86028683043CE
:100950002860E868012109070843E860FFF7D6FC32
:10096000044604E0FFF7D2FC001B022808D82868E0
:100970008001F7D531E0FFF7C9FC001B022801D93F
:100980000320F8BD28688001F5D426E00128F8D0BE
:10099000E868226A8107890F91421CD17021626A3E
:1009A0000140914217D17F21A26A0902014012023F
:1009B000914210D11F214904E26A014091420AD1BB
:1009C00007214906226B0140914204D1400F616B1F
:1009D0004007884201D00120F8BD0020F8BD00008A
:1009E000001002400024F4000C0000200000002051
:1009F000401002400070004088130000FFFFFEEE30
:100A00008C80C111094910B5401E884201D90120CE
:100A100010BD074C60610321081F00F08FF8002013
:100A2000A06107202061002010BD0000FFFFFF0033
:100A300000E000E0FEE7000070B586B014216846D3
:100A4000FFF773FB1F48416B042421434163416B53
:100A500021400591426B20210A434263426B0A40C8
:100A60000592416B012529434163416B2940059162
:100A7000426B02210A434263406B134E08400590CB
:100A8000002240213046FFF73BFC104801906946A8
:100A9000029500940E48FFF799FB00214020029137
:100AA00003910090019569463046FFF78FFB0022C5
:100AB00011460620FFF792FC0620FFF783FC06B0E4
:100AC00070BD000000100240000400500000211022
:100AD0000014005070477047704710B5FFF71CFCBA
:100AE00010BD10B592B038216846FFF71EFB0024F8
:100AF00001200E940F94109440021194FFF772FCA1
:100B000002200090C00103904020059004940794B7
:100B10006846FFF77FFD07200E900F941094002188
:100B200011940EA8FFF784FC12B010BD01200249F9
:100B3000C00688607047000000ED00E08307FF22D8
:100B4000DB0E9A408907090E9940002808DB8308CC
:100B500009489B001B1818689043084318607047A9
:100B60000007000F0838830804489B001B18D86949
:100B700090430843D861704700E400E000ED00E0D6
:100B800002E008C8121F08C1002AFAD17047704756
:100B9000002001E001C1121F002AFBD170470000B4
:100BA000FFF7C2FBFFF79DFFFFF746FF084C01224E
:100BB00040212046FFF7A4FBC820FFF7DDFA002202
:100BC00040212046FFF79CFBC820FFF7D5FAFEE73F
:100BD00000040050000000000000000000000000C1
:100BE0000000000000000000000000000000000005
:100BF00000000000010000000200000003000000EF
:100C000004000000060000000700000008000000CB
:100C100009000000340C0008000000201000000053
:100C2000800B0008440C00081000002000040000A5
:100C3000900B00080400000001000000000000000C
:040C40000024F40098
:04000005080000C12E
:00000001FF
