:020000040800F2
:1000000060060020D5000008451700088516000886
:1000100000000000000000000000000000000000E0
:100020000000000000000000000000004917000868
:100030000000000000000000471700084B170008F0
:10004000E7000008E7000008E7000008E7000008F4
:10005000E7000008E7000008E7000008E7000008E4
:1000600000000000E7000008E7000008E7000008C3
:10007000E7000008E7000008E7000008E7000008C4
:10008000E7000008E7000008E7000008E7000008B4
:1000900000000000E7000008E7000008E700000893
:1000A000E7000008E7000008E7000008E700000894
:1000B0001D230008E7000008000000000000000009
:1000C0000348854600F08AFA00480047CD2D000815
:1000D000600600200448804704480047FEE7FEE72A
:1000E000FEE7FEE7FEE7FEE755170008C10000083F
:1000F00030B50B46014600202022012409E00D46C0
:10010000D5409D4205D31D469540491B2546954047
:1001100040191546521E002DF1DC30BDF0B51FB45C
:100120000646002082B005464024019100901BE065
:10013000019922460F46304600F078F8049A059B54
:10014000801A994110D310461946224600F05EF8F5
:10015000361A8F410197224601200021009F00F0AE
:1001600055F838184D4100902046641E0028DFDC09
:10017000019B00982946324607B0F0BD0048704701
:10018000483A0008D2B201E00270401C491EFBD27E
:1001900070470022F6E710B513460A460446194692
:1001A000FFF7F0FF204610BD30B505462A460B4646
:1001B00010781C78521C5B1C002801D0A042F7D09C
:1001C000002C03D0002802D06D1CEFE7284630BD7C
:1001D000421C0178401C0029FBD1801A704710B5E1
:1001E000002200E0521C835C8C5CA34201D1002BF6
:1001F000F8D1D8B2E1B2401A10BD03460A780270B5
:10020000401C491C002AF9D11846704710B5202A15
:1002100004DB0146203A9140002010BD914020238C
:100220009C1A0346E3401943904010BD10B5202AA4
:1002300004DB0846203AD040002110BD0B46D340D5
:10024000D0402024A21A91400843194610BD000056
:10025000F0B507460846584087B0C00F04904800E4
:100260000E46590040084908BC1A884105D2384654
:1002700031461E4617460B460246580040081043BA
:100280004CD0300D039040055900400D490D0590AC
:10029000401A0290402872DA18030121000B090568
:1002A0000843019004980092002805D00199524219
:1002B0000020884100920190029840210A1A019979
:1002C0000098FFF7A3FF05460C466B4607CB00F0EE
:1002D00097F9C0197141039A0E0D0023D7175640A4
:1002E0001A467A40164344D0049A002A2DD0029A26
:1002F000012A039A15DC1205C01A91410126360520
:10030000001C7141D20F059ED20700930192029604
:100310002A46234600F094F907B0F0BD384631462E
:10032000FAE71605224A0F46B218C01AB741012152
:100330000905001C4F4100187F41114618187941EA
:10034000E20F10436D19644113E0E2076D08154395
:100350006408C2071443039A01261205C01A91418A
:100360003605001C7141CE07400830434908C018CB
:1003700051412A46234600F056F9CDE7FFE704989D
:1003800001224000C117121A00238B410498314604
:10039000C417381AA141EEE730B40124E4076340E2
:1003A00030BC55E730B40124E407614030BC4FE76E
:1003B0000000E0FFF0B51FB488B00B990998002445
:1003C00048400999C00F490049080991C0070B9995
:1003D0000090490049080B9109990898A6460843DE
:1003E0001CD00B990A98084318D0099801244000A2
:1003F000420D4800410D099824050003000B2043DD
:1004000009900B980003000B20430B9050181C49D7
:100410004018002201901446104605E000200146D5
:100420000DB0F0BD032801DA034600E003239C462B
:10043000C11A0AAE0AE05F0008ADED5B4F00F75B42
:100440007D430027AA187C41491C5B1E6145F2DDF3
:10045000410004AB5A522104120C0A43240C401CE4
:100460000828DFDB01980290009970460191009006
:10047000059B049A0799069800F0E2F8D0E700007F
:100480000DFCFFFFF0B50C465C4085B0E40FE407BF
:1004900003944C000026640859009446490802461B
:1004A0000296224321D062460A431ED06200570DB5
:1004B0004A000E032303550D012402462C4924054E
:1004C000781B1B0B360B40182343264361460090D4
:1004D0001C46501AB44103D30098401C009002E01F
:1004E000921800985B41002803DA0020014605B00D
:1004F000F0BD0020012109050746864611E064464B
:100500001D46141BB54106D36546521BB3417446C4
:1005100007430C43A646CD074008490828439218D4
:100520005B4105460D43EAD11046184313D060469F
:10053000194650407140084306D06046101AB34136
:1005400006D20122002306E000220123DB0702E09D
:100550000122D2435310009874460105381C6141B2
:10056000029C039D0019694100F05DF8BFE700009F
:10057000FD0300004A0009030123090B1B05194371
:100580000A4B10B5520D9A4202DA0020014610BD06
:10059000064B34339A4203DC9A1AFFF747FE10BD2C
:1005A000034BD218FFF732FE10BD0000FF0300001E
:1005B000CDFBFFFF10B5002904DB0124E407404216
:1005C0008C412146002B04DB1C460123DB075242F1
:1005D000A341994200D1904210BD0000064C012574
:1005E000064E05E0E36807CC2B430C3C98471034DB
:1005F000B442F7D3FFF768FD0C3C00082C3C000820
:1006000010B5202A06DBCB170846203A1041C11747
:100610000B4306E00B461341D0402024A21A914020
:100620000843194610BD10B5002B08DA0024401C01
:10063000614192185B411A4301D14008400010BD4E
:10064000F0B51FB482B005460C0003D0084601F097
:100650007DFE02E001F07AFE203002460090214645
:100660002846FFF7D3FD049B059A04460F4618431E
:100670001143084314D0184610431BD00098402162
:100680000A1A18460599FFF7D1FD05460E46009A4D
:1006900005990498FFF7BAFD084305D0012004E04E
:1006A0002046394607B0F0BD0020C11705430E4370
:1006B0002C43374300990E986305401A7905E40AE4
:1006C00000220C43FD0A0A3002D500200146E9E76A
:1006D0000105101969410C9C0D9D00196941FFF736
:1006E000A2FFDFE730B58C180278401C13071B0F00
:1006F00001D10378401C120906D10278401C03E0A6
:1007000005780D70401C491C5B1EF9D101E00B708F
:10071000491C521EFBD1A142E6D3002030BD00008F
:1007200070B506460D46002407A001F0FFFD002E1F
:1007300008D9285D2146421909A001F0F7FD641C83
:10074000B442F6D370BD000041545F436F6D6D61DC
:100750006E645F46756E74696F6E0D0A000000006E
:1007600070617261732025643A2025730D0A0000C0
:1007700070470000F8B501460024203101220A71BB
:100780004B79022B03D00421C16301242DE00368BF
:100790001D680E26B5431D6003681D686D086D0059
:1007A0001D60436C1D68FF260136B5431D60104B6C
:1007B0005D68066C1C273E401746B7403D435D60B0
:1007C000836CC56C5D60036D002B07D01E68FF2530
:1007D0000135AE431E60436D856D5D604A71002238
:1007E0000A71816B002900D088472046F8BD0000BF
:1007F000000002400B680022002B7DD0F0B40127DE
:100800000B6897403B4078D04C68022C01D0122CEA
:100810000ED1D408A4002418A446246A5507ED0E6E
:100820000F26AE40B4430E69AE40264364462662AE
:10083000056856000324B440A446A5430C79A407D8
:10084000A40FB4402C4304604C68012C05D0022C4A
:1008500003D0112C01D0122C0FD185686446A5431A
:100860002C46CD68B5402543856045680C79BD436D
:10087000E406E40F94402C434460C4686546AC43EE
:100880008D68B5402543C5604C68E40043D59508A4
:10089000254CAD002F193C6E9507EE0E0F25B54087
:1008A000AC4305252D07A84201D100250FE01F4DBF
:1008B000A84201D101250AE01D4DA84201D102251F
:1008C00005E01C4DA84201D1032500E00525B540F7
:1008D0002543154C3D66184D2E684F689E43FF0317
:1008E00000D51E432E606E684F689E43BF0300D53F
:1008F0001E436E60256801E014E00CE04E689D43E5
:10090000F60200D51D43256065684E689D43B6021A
:1009100000D51D4365600B68521CD34000D06EE7C4
:10092000F0BC7047704700000018024000040050FF
:1009300000080050000C005080180240002A01D02E
:10094000816170478162704701488068704700008C
:10095000040000200248816842688918816070475D
:100960000400002010B508480024016882151143D6
:100970000160204600F00AF8002801D0012401E0BF
:1009800000F028F8204610BD0020024070B50F4E40
:10099000002471680546002915D07D20C000FFF7AE
:1009A000A7FB01460A480068FFF7A2FB00F0B8FB6E
:1009B000002808D1042D06D200222946401E00F04E
:1009C0002DF8356000E00124204670BD04000020B1
:1009D00010000020094881B0016801221143016024
:1009E0000068104000900648C26B01040A43C263CD
:1009F000C06B0840009001B07047000040100240FA
:100A000000100240002805DBC106C90E0120884005
:100A1000014908607047000000E100E08207D30E42
:100A2000FF229A408907090E9940002808DB8308B5
:100A300009489B001818036893430B4303607047F1
:100A40000007000F0838830804489B001B18D8696A
:100A500090430843D861704700E400E000ED00E0F7
:100A600010B5104C216803225202914301432160CA
:100A7000C11FFF39FA3910D10B48062100684843DD
:100A80000A49FFF735FB6169401C490505D5002877
:100A900005D06169401E4905F9D4002010BD03202E
:100AA00010BD0000007000401000002040420F0008
:100AB000002801D101207047F8B5054657480E4679
:100AC00000684007400FB04219D2544F3868C00840
:100AD000C00030433860FFF737FF044638684007EE
:100AE000400FB0420BD04E4FFFF72EFF001BB84215
:100AF0006FD84A4800684007400FB042F4D12868D8
:100B0000484C81070DD5400704D5A068072109038B
:100B10000843A060A0680F2109028843A968084320
:100B2000A0602878C00739D0686801280BD0022857
:100B30000DD000280FD03C49032810D0C96989077F
:100B400010D40120F8BD21688903FAD50AE0216894
:100B50008901F6D506E021684905F2D502E0096A67
:100B60008907EED5A168C908C9000143A160FFF754
:100B7000EBFE0746A0686A6838210840D200904220
:100B80000CD0FFF7E1FEC11B2548814221D8A068A7
:100B9000382108406968C9008842F2D11F480168BD
:100BA0004907490FB1421CD900681C49C008C00060
:100BB00030430860FFF7C8FE074618480068400742
:100BC000400FB0420DD0FFF7BFFEC11B1448814259
:100BD00001D90320F8BD114800684007400FB0421A
:100BE000F1D12878400706D5A0680721090388437A
:100BF000E9680843A06000F033F8A1683C22890945
:100C000011400A4A515CC906C90EC840084908602B
:100C100008480068FFF7BAFEF8BD00000020024057
:100C2000881300000010024040100240AC38000859
:100C30001000002004000020064807490068896869
:100C40001C22890A1140054A515CC906C90EC840D8
:100C5000704700001000002000100240EC3800082F
:100C600010B5204CA068204A8006400F16D0A0681E
:100C70008006410F501001290FD0A1688906490F45
:100C8000022912D0A0688006400F042823D0A06853
:100C90008006400F032821D0002010BD20680121CC
:100CA0008004400F8140104612E0E1688B07E16844
:100CB0009B0F4906490F491C032B00D01046FFF734
:100CC00017FAE1684904490E4843E168490F491C95
:100CD000FFF70EFA10BD0120C00310BD7D200002F9
:100CE00010BD0000001002400024F400002801D1D3
:100CF00001207047F8B5044600783826C007002860
:100D00004BD0FD4DA868E96830408907890F10284D
:100D100002D008280BD001E0032908D00120626826
:100D2000000482420AD129680143296015E028683D
:100D3000800332D5606800287ED02EE00523012193
:100D40001B0489049A422A6802D10A432A60EAE70E
:100D500082432A60286888432860606800280ED093
:100D6000FFF7F2FD07462868800316D4FFF7ECFD75
:100D7000C01B64286FD828688003F7D50DE0FFF703
:100D8000E3FD07462868800307D5FFF7DDFDC01B9C
:100D9000642860D828688003F7D4207880076DD550
:100DA000D54DA868E96830408A070721920FC9022B
:100DB000102802D0002826D001E0022A23D0E068C3
:100DC0000028286848D0884321690843286028689B
:100DD000FF21013108432860FFF7B6FD0646286869
:100DE000400507D4FFF7B0FD801B022833D82868E0
:100DF0004005F7D568687F210902884361690902C7
:100E0000084368603AE02A68520502D5E268002A81
:100E100012D06A687F231B029A4363691B021A433C
:100E20006A60002810D12868884321690843286037
:100E300028688004400F00E08AE001218140AF482B
:100E4000FFF756F9AE490860AE480068FFF79EFD0F
:100E500000287DD112E07CE0FF2101318843286029
:100E6000FFF772FD06462868400507D5FFF76CFDC1
:100E7000801B02286DD828684005F7D42078A24D41
:100E8000000733D59C4880688006400F032815D0A2
:100E9000A0690028286A18D0012108432862FFF7BA
:100EA00053FD0646286A800720D4FFF74DFD801BBE
:100EB00002284ED8286A8007F7D517E0286A8007ED
:100EC00014D5A069002843D010E0400840002862F3
:100ED000FFF73AFD0646286A800707D5FFF734FD7D
:100EE000801B022835D8286A8007F7D4207840076D
:100EF00078D58148002781688906490F042948D0A0
:100F0000C06BC00008D47C48C26B01040A43C263B2
:100F1000C06B0840012700907C480168C90514D4C3
:100F200001688015014379480160FFF70DFD064611
:100F300076480068C00508D4FFF706FD801B02282C
:100F400073D872480068C005F6D5A068012801E092
:100F5000A4E06AE024D004210528E86925D04008EF
:100F60004000E861E8698843E861A068002822D071
:100F7000FFF7EAFCE969064689072CD4644DFFF7C0
:100F8000E3FC801BA84250D85F48C0698007F6D5B3
:100F900021E0E869800725D5A06800287ED021E0FF
:100FA000E86901210843E861DFE70843E861E8698F
:100FB00001210843D8E7FFF7C7FCE969064689071E
:100FC00009D5534DFFF7C0FC801BA8422DD84E48D1
:100FD000C0698007F6D4002F04D04748C16B0204D3
:100FE0009143C163E06900285AD0434EB168890635
:100FF000490F022959D001273F060228306816D030
:10100000B8433060F06880088000F060F0684149C3
:101010000840F060FFF798FC0446306880017DD5F9
:10102000FFF792FC001B02283BD90320F8BDB84310
:101030003060FFF789FC05463068800107D5FFF76F
:1010400083FC401B0228F0D830688001F7D4616A25
:10105000206AA26A0843E16A120211430843216B25
:101060000843616B0843F1682B4A11400843F06064
:10107000306838433060F068012109070843F060A8
:10108000FFF762FC04463068800147D4FFF75CFC40
:10109000001B0228C9D83068800100E02AE0F5D59D
:1010A0003CE030688001BBD438E00128BED0F06855
:1010B000226A8107890F91421CD17021626A014026
:1010C000914217D17F21A26A090201401202914286
:1010D00010D11F214904E26A014091420AD107213F
:1010E0004906226B0140914204D1400F616B4007D9
:1010F000884213D00120F8BD001002400024F40003
:101100001000002004000020401002400070004049
:1011100088130000FFFFFEEE8C80C1110020EAE77B
:101120000B4910B4401E884202D910BC0120704700
:101130000849486108480722C3691B021B0A4C047E
:101140002343C361002088610A6110BC704700001E
:10115000FFFFFF0000E000E004ED00E07047704793
:1011600070477047F8B503680446DA6918689968EB
:1011700016072546360F8035002E6CD05F4EFF27B0
:1011800021370E40074037437DD0D70706D0C7052B
:1011900004D501271F62AB683B43AB60930708D5BA
:1011A000CB0706D0276802233B62AB6804273B438A
:1011B000AB60530708D5CB0706D0276804233B62F2
:1011C000AB6802273B43AB60130709D520230340DC
:1011D000334305D0266808233362AE681E43AE60F1
:1011E000AB68002B36D092060AD520221040D205DB
:1011F0001140084304D0E16E002901D02046884701
:10120000A96820688268520601D4090735D50168AB
:10121000FF2221329143016020688168384A1140E1
:101220008160202068600020E066206881684906AF
:101230001FD5826840218A438260A06F002818D0A1
:1012400030498163A06FFFF795FA002802D0A06FA4
:10125000816B8847F8BD960615D5012720263F07E4
:1012600006400F403E430ED0E16E002922D1F8BD6A
:1012700009E02046FFF775FFF8BD2046FFF771FF34
:101280000020A860F8BDD60208D54E0206D5012080
:10129000000518622046FFF763FFF8BD16060CD55F
:1012A00001278026FF05064039400E4305D0216FF7
:1012B0000029F2D020468847F8BD51060DD54106D9
:1012C0000BD51A68204640218A431A6020212960E4
:1012D0000021216700F0D5F9F8BD110205D54100C4
:1012E00003D52046FFF73BFFF8BDD101FCD5002810
:1012F000FADA2046FFF732FFF8BD000001000010C7
:10130000FEFFFFEF99180008002801D10120704767
:1013100070B50446803005460068002805D10021DC
:101320007C200155204600F027F824202860206802
:101330000168490849000160204600F0B7FB012818
:1013400018D0A06A002802D0204600F00BFA2068CE
:1013500041680922D20291434160206881682A22B3
:101360009143816020680168012211430160204699
:1013700000F05EFA70BD000000B587B0002100915A
:10138000019102910391049100681349884221D18F
:101390001248C26B012149040A43C263C26B0A406E
:1013A0000592426B01210A434263406B049108405D
:1013B00005900C200090022001900520694600074E
:1013C000FFF718FA002211461C20FFF727FB1C200C
:1013D000FFF718FB07B000BD0044004000100240BA
:1013E000F0B4044680346368202B78D100290AD0F9
:1013F000002A08D08568DF01BD4207D10369002BB0
:1014000004D1CB0702D0F0BC012070470346603303
:101410001E7F012E63D001261E7781650146403173
:101420008A83CA83002601273F03C666BD4205D1D1
:101430000569002D12D12B4D0D8412E0002D08D02E
:1014400001273F07BD420BD10569002D04D03F2580
:10145000F2E70569002D01D07F25EDE7FF25EBE7D9
:101460000E84A660222565600468A56801273D43B7
:10147000A560446E7D07AC421AD1098D914217D800
:10148000826861148A4202D1016900290ED016498E
:10149000C1661E7701680A68FF2301331A430A6098
:1014A000006881681A051143816012E00F49EFE777
:1014B0000121826809038A4202D1016900290CD006
:1014C0000B49C1661E7700680168FF222132114373
:1014D0000160F0BC0020704701E00649F1E7F0BC74
:1014E00002207047FF0100000D1A00080D190008C6
:1014F000AD190008AD18000810B50B48094900786F
:1015000001F0DEFB0A2806D10849094802F058F824
:10151000044801F0CDFB012203490648FFF760FFB4
:1015200010BD0000DC01002000000020E4010020CC
:101530001400002050010020FFB5044689B080301F
:101540000190006817460D4620286ED1002D0BD063
:10155000002F09D00126A0683603B04207D12069C8
:10156000002804D1E80702D001200DB0F0BD2046CC
:1015700060300290007F012857D00299012008773F
:10158000019900208860019821210160FFF7DCF9B2
:10159000039020464030049087820498C782A06858
:1015A000B04202D1206900283BD000200095059070
:1015B0000498C08A002827D02068039F0C9DC16929
:1015C0008026304688430DD0681C06D0FFF7BCF952
:1015D000C01BA8422AD8002D28D02068C1693046F7
:1015E0008843F1D10098002836D0216800788862BD
:1015F0000098401C00900498C08A0499401EC8823C
:101600000498C08A0028D7D10C980090002240216D
:101610002046039B00F044FE002827D003200DB095
:10162000F0BD002005950090C2E727E02068016822
:10163000FF22A13291430160206881684908490076
:10164000816001992020086001994860029900207A
:10165000087703200DB0F0BD059821680088C0050B
:10166000C00D88620598801C0590C4E70199202070
:1016700008600299002008770DB0F0BD02200DB07F
:10168000F0BD7047FEE70000F0B587B000241A48AF
:1016900000940194029403940494416B042529431B
:1016A0004163416B29400591426B20210A4342630B
:1016B000426B0A400592416B012631434163406B06
:1016C0000E4F30400590002240213846FFF736F992
:1016D0000B4801906946029600950A48FFF78AF880
:1016E0004020009002946946019603943846FFF723
:1016F00081F807B0F0BD0000001002400008005063
:10170000000021100014005010B50D480B49016075
:10171000E1214902416000218160C1600161816174
:10172000C16101620C22416242618162FFF7ECFDFE
:10173000002801D0FFF71CF810BD00000044004055
:101740005001002070477047704710B5FFF702F94D
:1017500010BD000001200249C006886070470000EB
:1017600000ED00E010B4018DC90707D001684A6898
:1017700001235B049A43C36A1A434A60018D8907B7
:1017800007D501684A6801231B049A43036B1A4377
:101790004A60018D490707D501684A6801239B0407
:1017A0009A43436B1A434A60018D090707D50168C4
:1017B0004A680123DB039A43836B1A434A60018D15
:1017C000C90607D50268916801231B039943C36BBF
:1017D00019439160018D890607D501688A68012344
:1017E0005B039A43036C1A438A60018D490612D544
:1017F00003685A6801210905446C8A4322435A60F0
:10180000426C8A4207D10268516803235B05994301
:10181000836C19435160018D090607D501684A6838
:101820000123DB04C06C9A4302434A6010BC70473A
:10183000F0B5054683B0002680350446AE60FFF75C
:1018400083F8019020680068124F000709D5012134
:101850000097002249052046019B00F021FD002849
:101860000DD12068006840070CD5012100970022A7
:1018700089052046019B00F013FD002802D00320BB
:1018800003B0F0BD20202860686060342677002017
:1018900003B0F0BDFFFFFF0110B5806A00220146D2
:1018A0004031CA83CA82FFF75CFC10BD70B50146A7
:1018B0004031024680320B8C556814460268222D56
:1018C00004D0906908210843906170BD526A856D0B
:1018D0001A402A80826D921C8265CA8B521ECA836E
:1018E000C98B0029F1D101680A68FF2321339A438B
:1018F0000A6001688A68520852008A60202161608B
:101900000021C166FFF7F8FD70BD0000F8B505467F
:10191000403504462F8C803000904068222805D046
:1019200020688169082211438161F8BD2E8D002E47
:1019300024D02068406AA16D38400880A06D801CCA
:10194000A065E88B401EE883E88B002812D1206850
:101950000268FF2101318A43026020688168114AD0
:10196000114081600099202048600020E0662046F8
:10197000FFF7C2FD761E3604360CDAD1E88B00285C
:10198000D3D0298D8142D0D92068816801221207E5
:10199000914381600448E066206801682022114379
:1019A0000160F8BDFEFFFFEFAD18000870B50146FD
:1019B0004031024680320B8C556814460268222D55
:1019C00004D0906908210843906170BD526A1A40A2
:1019D000836D1A70826D521C8265CA8B521ECA8337
:1019E000C98B0029F1D101680A68FF2321339A438A
:1019F0000A6001688A68520852008A60202161608A
:101A00000021C166FFF778FD70BD0000F8B50546FE
:101A1000403504462F8C803000904068222805D045
:101A200020688169082211438161F8BD2E8D002E46
:101A300024D02068406AA16D38400870A06D401C19
:101A4000A065E88B401EE883E88B002812D120684F
:101A50000168FF2201329143016020688168114AC8
:101A6000114081600099202048600020E0662046F7
:101A7000FFF742FD761E3604360CDAD1E88B0028DB
:101A8000D3D0298D8142D0D92068816801221207E4
:101A9000914381600448E066206801682022114378
:101AA0000160F8BDFEFFFFEFAD190008F8B5044670
:101AB0002369A168E6691943636900253343194323
:101AC000636E02680B43EE481168EE4E31401943D5
:101AD00011602268516803231B039943E36819438B
:101AE00051602268A169824201D0236A1943936838
:101AF000E54E33400B4393602168CA6A636A12095A
:101B000012011A43CA62E14B2168E14A99420AD1A3
:101B100052699207920F28D0012A2AD0022A26D091
:101B2000032A14D111E0DB4B99421ED081420ED121
:101B3000536903229202134017D0012292029B1A8A
:101B400017D09B1A13D0934201D1082600E010262B
:101B5000FF27013781427DD1002E0CD0022E29D0E3
:101B6000042E59D0082E76D18EE00026F0E702260A
:101B7000EEE70426ECE7FFF75FF80246606A00280C
:101B800066D001286AD002286AD003286AD00428C7
:101B90006AD005286AD006286AD007286AD00828A3
:101BA0006AD009286AD00A286AD00B286AD04FE088
:101BB000104685E0606A002815D0012816D002285A
:101BC00016D0032816D0042816D0052816D00628CB
:101BD00016D0072816D0082816D0092816D00A28AB
:101BE00016D00B2816D00121AB4869E00221FBE793
:101BF0000421F9E70621F7E70821F5E70A21F3E7D1
:101C00000C21F1E71021EFE72021EDE74021EBE780
:101C10008021E9E73946E7E7FFF722F80246606AE4
:101C2000002815D0012819D0022819D0032819D06E
:101C3000042819D0052819D0062819D0072819D04A
:101C4000082819D0092819D00A2819D00B2819D02A
:101C50000121ADE77AE158E000E001E00221A7E7C9
:101C60000421A5E70621A3E70821A1E70A219FE7B0
:101C70000C219DE710219BE7202199E7402197E760
:101C8000802195E7394693E7606A002815D001283E
:101C900025D0022825D0032825D0042825D00528C2
:101CA00025D0062825D0072825D0082825D00928A2
:101CB00025D00A2825D00B2825D001210120C003DA
:101CC000FEF716FA00287DD0616800914A00891855
:101CD00081421AD800990903814216D317E00221E4
:101CE000ECE70421EAE70621E8E70821E6E70A2114
:101CF000E4E70C21E2E71021E0E72021DEE74021C4
:101D0000DCE78021DAE73946D8E7012568E2002ED2
:101D10003AD0022E69D0042E7ED0082EF5D1606A0A
:101D2000002815D0012878D0022877D0032876D053
:101D3000042875D0052874D0062873D0072872D0DF
:101D4000082871D0092870D00A286FD00B2800D03D
:101D50000127002601203A463346C0033146FEF7EC
:101D6000DDF9020E09021143020200980023400827
:101D700010187141009AFEF7D1F903210902421AA5
:101D800046498A426FD9C0E7FEF756FF0146606AAE
:101D9000002869D0012868D0022867D003286ED0B7
:101DA00004287DD005287CD006287BD007287AD04F
:101DB000082879D0092878D00A2877D00B2853D161
:101DC0003A4600E00CE20026084633463146FEF76C
:101DD000A5F9020E0902114362680302500818189F
:101DE00071410023FEF79AF9C7E7606A002821D005
:101DF000012834D0022834D0032838D0042838D021
:101E0000052838D0062838D0072850D0082850D0C8
:101E1000092850D00A280AE051E083E084E085E0F8
:101E200086E087E088E089E08AE08BE08CE044D0BF
:101E30000B2800D0012700263A4633461648314683
:101E4000FEF76CF9020E090211430202009800230A
:101E5000400810187141009AFEF760F98DE70227DB
:101E6000E9E70427E7E7B9E146E047E048E006276D
:101E7000E1E70827DFE70A27DDE70C27DBE741E09A
:101E800000800040F369FFCFFFF4FF1100380140EC
:101E900040100240004400400024F400FFFC0F000A
:101EA00032E033E034E035E036E037E038E0102768
:101EB000C1E72027BFE74027BDE78027BBE7FEF744
:101EC000CFFE0146606A002816D0012816D00228ED
:101ED00016D0032816D0042816D0052816D00628B8
:101EE00016D0072816D0082816D0092816D00A2898
:101EF00016D00B2800D163E7012761E702275FE7CF
:101F000004275DE706275BE7082759E70A2757E715
:101F10000C2755E7102753E7202751E740274FE7C5
:101F200080274DE7022714E7042712E7062710E76A
:101F300008270EE70A270CE70C270AE7102708E70F
:101F4000202706E7402704E7802702E70122E0690F
:101F5000D20390427DD1002E21D0022E47D0042EF4
:101F600078D0082E00D0D0E6606A002815D001286D
:101F700071D0022870D003286FD004286ED00528B5
:101F80006DD006286CD007286BD008286AD00928A5
:101F900069D00A2868D00B281DD001271BE0FEF766
:101FA0004BFE0246606A0028F7D0012853D0022871
:101FB00052D0032851D0042850D005284FD00628ED
:101FC0004ED007284DD008284CD009284BD00A28DD
:101FD0004AD00B28E1D139461046FEF789F86168EE
:101FE00040004A088018FEF783F880B224E0606A57
:101FF000002815D0012838D0022838D0032838D03E
:10200000042838D0052838D0062838D0072838D0FA
:10201000082838D0092838D00A2838D00B2800D012
:10202000012739469C48FEF763F8616840004A087A
:102030008018FEF75DF880B20146984A1039914247
:1020400091D8511C01400007400F08432168C86027
:10205000C6E04FE01DE039E03AE03BE03CE03DE027
:102060003EE03FE040E041E042E00227D9E70427BC
:10207000D7E70627D5E70827D3E70A27D1E70C27B4
:10208000CFE71027CDE72027CBE74027C9E78027F8
:10209000C7E7FEF7E5FD0246606A002884D0012804
:1020A00014D0022814D0032814D0042814D00528F2
:1020B00014D0062814D0072814D0082814D00928D2
:1020C00014D00A2814D00B2885D066E7022782E7AF
:1020D000042780E706277EE708277CE70A277AE7B8
:1020E0000C2778E7102776E7202774E7402772E768
:1020F000802770E7002E21D0022E46D0042E79D002
:10210000082E00D001E6606A002815D0012872D0A0
:10211000022871D0032870D004286FD005286ED013
:1021200006286DD007286CD008286BD009286AD003
:102130000A2869D00B281DD001271BE0FEF77CFD83
:102140000246606A0028F7D0012854D0022853D0F4
:10215000032852D0042851D0052850D006284FD04B
:1021600007284ED008284DD009284CD00A284BD03B
:102170000B28E1D139461046FDF7BAFF61684A08DD
:102180008018FDF7B5FF80B223E0606A002815D003
:1021900001283AD002283AD003283AD004283AD06D
:1021A00005283AD006283AD007283AD008283AD04D
:1021B00009283AD00A283AD00B2800D001273946FE
:1021C0003548FDF795FF61684A088018FDF790FFD4
:1021D00080B20146314A1039914293D82168C860D3
:1021E000204601214030418501850020E0662067BE
:1021F0002846F8BD1DE03AE03BE03CE03DE03EE033
:102200003FE040E041E042E043E00227D7E7042717
:10221000D5E70627D3E70827D1E70A27CFE70C271A
:10222000CDE71027CBE72027C9E74027C7E780275E
:10223000C5E7FEF715FD0246606A002800D17BE77E
:10224000012814D0022814D0032814D0042814D054
:10225000052814D0062814D0072814D0082814D034
:10226000092814D00A2814D00B2883D064E7022749
:1022700080E704277EE706277CE708277AE70A2716
:1022800078E70C2776E7102774E7202772E74027C6
:1022900070E780276EE700000024F400EFFF0000E5
:1022A000FFB50446006881B00D460A9EC169174615
:1022B0002846884317D00020B84211D1701C07D09F
:1022C000FEF742FB0499401AB0420ED8002E0CD003
:1022D0002068C169284688431DD00020B842EDD04F
:1022E000002005B0F0BD0120E6E720680168FF226C
:1022F000A1329143016020688168490849008160EA
:102300002021204680300160416000206034207729
:10231000032005B0F0BD0120E0E7000010B5024841
:10232000FEF720FF10BD0000500100200FB410B5D3
:1023300003A9044B044A029800F0E8F810BC08BC5A
:1023400004B01847B12D00084C0100202021020CD8
:1023500001D010211046020A01D0104608390209A6
:1023600001D01046091F820801D01046891E42087C
:1023700001D0881E7047081A704702E008C8121F73
:1023800008C1002AFAD170477047002001E001C15E
:10239000121F002AFBD17047F0B51FB486B0099810
:1023A000089A030D0021024314D05148514A1818CD
:1023B000504305141198012810981AD0281A401C6F
:1023C00000264D4F4D49009601910490002812DAE5
:1023D000444211E01198012449A3012801D1109829
:1023E000C1430698119A84600360C26041600BB0DB
:1023F000F0BD4042E4E70446210500203F4A001CAE
:1024000051410391029012E0E00707D032463B466B
:1024100001990098FDF7CEFF0191009032463B46AE
:1024200010461946FDF7C6FF06460F466410002CFD
:10243000EAD10498039B0028029A0999089806DAC1
:10244000FDF7B8FF019B009AFDF7B4FF05E0FEF72A
:1024500019F8019B009AFEF715F804460E46002273
:10246000284BFEF7A7F803D80020C043014607E039
:102470000022254B20463146FDF7EAFEFEF77AF8AA
:10248000102409E0002C0ADB0A220023FDF746FE97
:10249000079B30321A55641E02460A43F2D11122BC
:1024A000641C079B121B1C19119B012B03D00123D9
:1024B00008430ED10AE0084304D0112010900020F8
:1024C000119077E71098151A6D1E0BE01098824254
:1024D00002DD00236D1C03E0824201DA00236D1E41
:1024E000002BEED0069811998260C16030C07EE763
:1024F00001FCFFFF104D0000000014400000F03F01
:10250000300000000000F0430000E03FFFB597B04E
:102510000646002518E2252877D100242746FD49E4
:10252000049400E00443761C32780120203A904065
:102530000842F7D130782A280ED00222307801469E
:102540003039092916D804990A23594330394018DB
:102550001443761C0490F1E7189802C8049118906F
:10256000002904DA01204003044348420490022079
:102570000443761C30782E2814D10420044370784C
:10258000761C2A2809D11898761C80C8189009E072
:102590000A214F43303FC719761C30780146303945
:1025A0000929F5D930786C2810D006DC4C281AD0CF
:1025B00068280ED06A2817D104E0742813D07A282E
:1025C00012D110E00120400504430CE0012109056F
:1025D00001E0032109050C437178814203D10120F8
:1025E00000052418761C761C3078119066280BD0D4
:1025F00013DC58287DD009DC00287BD04528F6D094
:102600004628F4D047281AD1A5E118E0632835D030
:10261000642870D0652812D19DE170286CD008DC48
:102620006728F1D069287BD06E280DD06F2806D19D
:10263000BAE073282ED0752871D0782859D01A9A0C
:10264000199990476D1C7EE16002400F022809D065
:1026500003280DD00428189801680DD00D60001DC6
:10266000189070E11898EA1701680D604A60F6E763
:10267000189801680D80F2E70D70F0E718986A4627
:1026800001781172001D18900020507202A800906D
:10269000012005E0189802C8189000200091C0435E
:1026A00061070DD5002101E00199491C0191B94252
:1026B00012DA8142F8DB009A515C0029F4D10BE078
:1026C000002101E00199491C01918142FADB019A44
:1026D0000099895C0029F5D1019904981A9B471A41
:1026E00021463846199A00F097FA01994019451881
:1026F0000BE04FE02CE113E04EE0009800990078E9
:10270000491C00911A9A199990470198401E01900E
:10271000401CF2D1214638461A9B199A10E137E045
:102720000A200021009001916002410F022907D088
:10273000189A01CA1892C2179446032908D00AE0D1
:102740001898C01DC108C90005C91891944607E032
:1027500000B2C2179446042902D140B2C1178C4678
:1027600000226146944506DA0A4600214042914122
:102770008C462D2102E0210504D52B216A461173D8
:10278000012103E0E10701D02021F7E7029155E0A4
:102790000A200AE0102008E0102000900021042008
:1027A00004430191082703E00820002101910090D3
:1027B0006002410F022907D0189A01CA189200221C
:1027C0009446032908D008E01898C01DC108C90024
:1027D00005C91891944603E080B2042900D1C0B223
:1027E00000210291210729D51199702906D0009A5C
:1027F0001021019B4A401A4305D00EE040216A4651
:102800001173012108E06146014306D030216A4678
:1028100011731199517302210291009A0821019BB1
:102820004A401A430AD16146014301D1610705D5E7
:1028300030216A46117301217F1E02911199582996
:1028400004D035A10E910DA90D910DE037A1F9E746
:102850006146019B009AFDF761FC0E9B8C469B5CD8
:102860000D9A521E0D92137061460143F0D10D98DE
:1028700005A9081A20300190600703D50120000443
:10288000844300E001270198874201DD381A00E007
:102890000020019900904118029809180498401AE4
:1028A0000490E00306D421461A9B199A049800F07C
:1028B000B3F94519002706E003A81A9AC05D1999D3
:1028C00090476D1C7F1C02988742F5DBE0030CD516
:1028D00021461A9B199A049800F09EF9451904E0C4
:1028E0001A9A3020199990476D1C0099481E009043
:1028F0000029F5DC08E00D980D990078491C0D9130
:102900001A9A199990476D1C0199481E0190002947
:10291000F1DC63E1092801003031323334353637D8
:10292000383961626364656600000000303132331B
:1029300034353637383941424344454600000000BB
:1029400000F05AF94519761C3078002800D0E2E5ED
:1029500028461BB0F0BD600700D406271898C01D9C
:10296000C108C90048680A680831C30FDB0718911D
:10297000190001D09CA108E0210501D59BA104E02C
:10298000E10701D09AA100E09AA1430011985B08E9
:10299000109165280CD006DC452809D046281DD0AA
:1029A000472841D141E0662818D067283CD13CE057
:1029B0000021112F01DB112000E0781C0191009013
:1029C00008A911A8FFF7E8FC139905910021119AB5
:1029D00015927F1C12980197009150E00120C007CA
:1029E00003900120019008A9009711A8FFF7D4FCDB
:1029F000139A149905920022119B00921298159334
:102A0000059A0192002901D0104602E0791C401875
:102A10000190381A01D5019804E04042401E009010
:102A2000781C0190C01B029043E0012F00DA0127BF
:102A30000021112F01DD112000E0384601910090A6
:102A400008A911A8FFF7A8FC13990591119A002174
:102A5000129815920091019721070CD40599B9425B
:102A600001DB019900E00191012904DD159A491E5D
:102A7000515C302906D0B84201DA011D05DA012186
:102A8000029115E00199491EEDE7002805DC009947
:102A9000411800910199091A03E0019A411C9142E1
:102AA00000DD01910099401A401C02900120C007EE
:102AB0000390200706D402990198814202DB00208E
:102AC000C043029000206946C87707AF01210398F0
:102AD0000337C907884224D0022011902B2012907E
:102AE000039800280CDA404203902D20129007E052
:102AF0000A210398FDF7FCFA30317F1E03903970EC
:102B00001199481E11900029F2DC03980028EFD19A
:102B1000791E129808703078202108404530BF1E79
:102B2000387006A8C01BC01D0390109800780028BC
:102B300000D00120019941180298C0170918039884
:102B400009180498401A401E0490E00306D4214658
:102B50001A9B199A049800F05FF8451910980078AC
:102B6000002803D01A9A199990476D1CE00324D5C8
:102B700021461A9B199A049800F04EF845191CE05A
:102B80000098002807DB00990598884203DD159816
:102B9000405C199901E0199930201A9A90470098E1
:102BA0006D1C401C00900298401E0290002804D129
:102BB0001A9A2E20199990476D1C0199481E019070
:102BC0000029DDDC05E038781A9A7F1C19999047B6
:102BD0006D1C0399481E03900029F4DC21461A9BC2
:102BE000199A0498ACE600002D0000002B000000AC
:102BF0002000000000000000F8B5044600251E4635
:102C00001746880404D405E039462020B0476D1CDF
:102C1000641EF9D52846F8BDFFB50446002581B0ED
:102C20001E46C80301D5302700E02027880404D5BC
:102C300005E038460399B0476D1C641EF9D5284657
:102C400005B0F0BD10B504461148FFF76FFB114801
:102C5000FFF76CFB1048FFF769FB1048FFF766FBB6
:102C60000F48FFF763FB0F48FFF760FB2046FFF7B5
:102C70005DFB0020A084E0842085A085E08520867F
:102C8000204609A1243000F089FB0120608510BD99
:102C9000903A00085C3B0008183B0008D43A000852
:102CA000A03B00084C3A00086C7320636D64000080
:102CB00000214A1E4160028008300954704700001C
:102CC000F8B50C460546803460780B466C330A46EE
:102CD000002805D00026022829D066702846F8BDB5
:102CE0002946294E002000E0401C375C8F4202D06C
:102CF000002FF9D10CE03906090E09D0002807DBB6
:102D00008100224841580029E8D010468847E5E76D
:102D10001B2D04D02946104600F0AAF8DEE7022059
:102D200060702078C5542078401C2070D6E7207849
:102D3000C5542846613819280AD92030192807D9DE
:102D40007E2D05D0207812281AD926706670C5E726
:102D500029460F4B002000E0401C1F5C8F4202D030
:102D6000002FF9D102E03906090E01D10020C0433D
:102D70000849800009581046884726706670ADE7FC
:102D8000401C2070AAE700000C39000878390008C0
:102D9000113900082839000800214A1E41600280CC
:102DA000024608328954803001704170704700003B
:102DB00013B5044B012269460348FEF7BDFB00989A
:102DC00002B010BDFFFF00005001002092B0FDF7DF
:102DD000C9FD38216846FDF7DCF9002401200E9476
:102DE0000F94109440021194FDF73AFE0225E80179
:102DF000039000954020059008200A9080030B90D6
:102E0000079500020C900895000104940D90099418
:102E10006846FDF76BFF07200E90109402210F9576
:102E200011940EA8FDF744FEFEF72EFCFEF76CFC95
:102E300007A0FFF77BFA0A48FFF7AEFF0948FFF744
:102E400001FF012208490948FEF7CAFAFEE700001F
:102E5000546869732069732054657374200D0A00E7
:102E6000DC010020140000200000002050010020A0
:102E7000F3B5002503464268445F083381B0622AF7
:102E800026D294420AD2A24208D90021141B561A13
:102E90003618F779491C3772641EF8D10188491C2D
:102EA00009B201804268521C4260029ACA544168C9
:102EB000CD540021415E4068491C814202D209A0E4
:102EC000FFF734FA0949029800F0CEF903B0F0BDDB
:102ED00061214160612C01D360220280CD5403B096
:102EE000F0BD00001B5B3140000000004C010020E1
:102EF00070B506460546803630780024002809D98A
:102F000028196030007B044900F0AEF93078641C69
:102F1000A042F5D870BD00004C01002070B56E21B4
:102F2000095C332940D10024045F4568621C954246
:102F300028D9611CAA4225D22C1B0023621E002A1C
:102F400020DD0122A41EA24303D00B185C7A1C7260
:102F500001230025455F4468641B641E944211D917
:102F6000CC182418657A25725B1CCC182418657A55
:102F700025720025455F4468921C641B5B1C641E1F
:102F80009442EDD841680023C35E0AB29A420BDD39
:102F9000491E042505A600244160305D054900F066
:102FA00063F9641CAC42F8D370BD00001B5B315068
:102FB000000000004C01002070B50021415E002996
:102FC00034DB42688A4224D9914222D20023541A27
:102FD000002C1EDD0122641EA24303D00B185C7A74
:102FE0001C7201230025455F4468641B944210D97C
:102FF000CC182418657A25725B1CCC182418657AC5
:1030000025720025455F4468921C641B5B1C94423A
:10301000EED80188491E01804168491E416004497B
:10302000082000F021F903A0FFF780F970BD00002F
:103030004C0100201B5B315000000000F8B5184F18
:103040000546788D002829D00021695E15A0491C0D
:10305000FFF76CF915A0FFF769F92A460832798D58
:103060001646134800F02DF93046FDF7B1F8411E21
:103070006860298000250446002806D9705D0D4946
:1030800000F0F2F86D1CA542F8D3788D401C80B298
:103090007885398D884200D901207885F8BD0000F7
:1030A000140000201B5B2564440000001B5B4B00E8
:1030B000380000204C01002010B502490D2000F01E
:1030C000D3F810BD4C0100200021415E002906DB31
:1030D00010B5491E018002A0FFF728F910BD704706
:1030E0001B5B31440000000010B50021C943018082
:1030F000002141600548018D418505490D2000F002
:10310000B3F803490A2000F0AFF810BD1400002006
:103110004C01002000214268415E521E914206DAB5
:1031200010B5491C018002A0FFF700F910BD7047DF
:103130001B5B31430000000070B5014604460831B6
:103140000D46244800F094F8060020D0606800285E
:103150001ED00021615E20A0491CFFF7E7F820A0E7
:10316000FFF7E4F83046FDF733F86060401E20803A
:1031700031462846FDF741F866680024002E06D93E
:10318000285D184900F070F8641CB442F8D370BD93
:1031900015A0FFF7CBF80F4D0024286AC06800285F
:1031A00013D01420296A6043091810A0FFF7BEF855
:1031B0000DA0FFF7BBF8641CE4B220461422504374
:1031C000296A0C3008580028EBD10248FFF7AEF806
:1031D00070BD0000140000201B5B2564440000004B
:1031E0001B5B4B004C0100200D0A00002573000002
:1031F000F8B5174F0546788D002828D00021695E64
:1032000014A0491CFFF792F814A0FFF78FF82A4684
:103210000832798D1646124800F053F83046FCF714
:10322000D7FF411E6860298000250446002806D982
:10323000705D0C4900F018F86D1CA542F8D3788D2C
:10324000401E0004000C788500D1388D7885F8BDCB
:10325000140000201B5B2564440000001B5B4B0036
:10326000380000204C01002010B5FFF7A1FD10BD73
:10327000F3B50546002081B004460090286AFF2778
:10328000007800281AD0142126464E43286A029955
:103290008019FCF789FF002808D0296A8919401A8B
:1032A000B84203D207063F0E009107D0641CE4B277
:1032B0001420296A6043085C0028E4D1009803B018
:1032C000F0BDF0B483888B422BD30388491E591874
:1032D00089B2032900D9091F89B24318491C9B7B75
:1032E00089B2032900D900214118897B8B421AD267
:1032F000C018541ECB1A1130D90703D04178617021
:10330000401C641CD903090C09D045786570857888
:10331000491EA570801CA41C0904090CF5D10020CD
:10332000D054F0BC7047FE2B17D2FE26541EC51891
:10333000F61A1135F70703D06F786770641C6D1C9F
:10334000F603360C09D06F786770AF78A770A41CAD
:10335000AD1C761E3604360CF5D10024002916D09B
:10336000FD24E41AA4181130CD0703D04578657008
:10337000401C641C4D0809D0467866708678A6709B
:10338000801CA41C6D1E2D042D0CF5D10C46E11AD9
:1033900000208918E0318877F0BC7047F3B581B020
:1033A00004460298FCF714FF214682B20E31FD2A32
:1033B0004AD8FD27A389F81A904247DBA088032842
:1033C00044D06388A07A58546088401C80B26080E2
:1033D000032800D900206080A088401CA080002A1B
:1033E0002FD002982546D3071235401E002B0BD054
:1033F0006689437873556389401C5B1C9BB263816B
:10340000FD2B00D900236381560817D067894378C4
:103410007B5563895B1C9BB26381FD2B00D9002324
:10342000638187785F556389801C5B1C9BB26381D5
:10343000FD2B00D900236381761EE7D1A089801877
:10344000A0816288A07A505403B0F0BD2088401C4F
:1034500080B22080032800D900202080A5886D1E1E
:10346000A5802689455CAE4202D8AD1B5B1B02E0FD
:10347000AD1B5B1BFE3BA381405C20819AE70000F3
:1034800070B500240D46012840D96878411920A064
:10349000FCF7A5FE00281DD0687841191DA0FCF797
:1034A0009EFE00282ED0687841191BA0FCF797FEDD
:1034B00000280ED119A0FEF739FF1EA0FEF736FF37
:1034C0001FA0FEF733FF23A0FEF730FF27A0FEF773
:1034D0002DFF70BD2D4D286AC0680028F9D014203A
:1034E000296A60430818FEF721FF11A0FEF71EFFAE
:1034F000641C204614225043296A0C3008580028C6
:10350000EDD170BD22A0FEF711FF70BD25A0FAE736
:10351000636D64002D7600002D6800007573656191
:1035200067653A206C73205B6F7074696F6E735DB2
:103530000D0A00006F7074696F6E733A200D0A00F7
:1035400009202D6820093A2073686F772068656C20
:10355000700D0A0009202D7620093A2073686F77D4
:103560002076657273696F6E0D0A00000920636D25
:103570006420093A2073686F7720616C6C20636F58
:103580006D6D616E64730D0A000000001400002070
:103590006C732076657273696F6E20312E302E0D3C
:1035A0000A0000006C73206E656564206D6F7265A3
:1035B00020617267756D656E7473210D0A000000DD
:1035C000F3B5ABB0002001900A200D902B9C2C9EEF
:1035D000059624340A94A088258800283AD03046DD
:1035E000FCF7F6FD82B200208446A08886460028BB
:1035F00030D960196D1C807BADB2032D00D9002538
:103600006119897B884201D8091A02E0FE231B1A3E
:10361000591889B2914217D16146491C89B20B9160
:103620000021002A0DD923189B7C775CBB420BD16B
:10363000401C80B2FD2800D90020491C89B291426B
:10364000F1D30B9800280DD16046401C80B284460F
:10365000E645CED82C980078002803D02C990A98FB
:10366000FFF79CFE2C98FCF7B3FD642808D97FA0D7
:10367000FEF75CFE84A02B99FEF758FE2DB0F0BD3E
:10368000059882A184460020029003900490059042
:10369000069007900890099002A801240A78254610
:1036A000D60857077F0F835DBD402B43491C8355C8
:1036B000002AF3D16146764F002901D00D4602E081
:1036C0003D6800E06D1C2978CA08835C4E07760FC0
:1036D0002246B240134201D00029F3D109062E46FA
:1036E000090E10D0C9B2CA084907825C490F2346A7
:1036F0008B401A4203D0002028706D1C03E06978CB
:103700006D1C0029EED16248AE42056000D1002652
:103710002B980025006A2C9FC068002813D02B9896
:10372000016A1420684309183846FCF758FD002840
:103730002B9816D06D1C016A2846142250430C3079
:1037400008580028EBD1FCF719FD01682C98007887
:10375000085C982108427DD031464EA0FEF7E6FD78
:103760007FE01421006A4D430C3540590C9000282D
:10377000E9D001990EAD0D9868540D982C99281830
:10378000FCF73BFD2C98FCF723FD0D994018401CDD
:10379000C0B20D900198401C0190002E57D002AC91
:1037A00000200290039004900590069007900890E6
:1037B000099036A101200A780546D60857077F0FE1
:1037C000A35DBD402B43491CA355002AF3D1304FC4
:1037D0003D6800E06D1C2A78D108635C5607760FBF
:1037E0000146B1400B4201D0002AF3D111062E460A
:1037F000090E10D0CAB2D1085207615C520F0346BD
:103800009340194203D0002028706D1C03E06978B2
:103810006D1C0029EED13D60AE4200D10026019A18
:103820000EA80D9981540D9940183146FCF7E5FC1E
:103830003046FCF7CDFC01460D980818401CC0B27C
:103840000D900198401CC0B20190002EA8D1401EDE
:10385000C0B200E005E00C99002902D00C9A0EA934
:1038600090472B98FEF762FD2DB0F0BD7468697328
:1038700020636F6D6D616E6420697320746F6F20BB
:103880006C6F6E672E0A0000257300002000000098
:10389000480100206E6F20636F6D6D616E64206E55
:1038A000616D65643A2025730A0000000000000085
:1038B0000000000000000000000000000000000008
:1038C00000000000000000000000000001000000F7
:1038D00002000000030000000400000006000000D9
:1038E00007000000080000000900000000000000C0
:1038F00000000000000000000000000001000000C7
:10390000020000000300000004000000080A0D0986
:10391000006D4941424344584B4D504A404C6C68FD
:103920006E4873757E000000F12E0008F12E00082D
:10393000F13100083D30000815310008C930000899
:10394000F12E0008F12E0008F12E0008F12E0008DB
:10395000F12E0008F12E0008F12E0008F12E0008CB
:10396000F12E0008F12E0008F12E0008F12E0008BB
:10397000F12E00081D2F0008B92F0008E9300008BB
:10398000B9300008393100086C73000000000000F5
:1039900000000000813400080000000041540000D5
:1039A00000000000000000002107000800000000E7
:1039B0000000000000000000000000000000000007
:1039C0000000000000404040404040404040414135
:1039D00041414140404040404040404040404040E4
:1039E000404040404005020202020202020202027E
:1039F000020202020220202020202020202020027B
:103A0000020202020202909090909090101010100A
:103A100010101010101010101010101010101010A6
:103A2000020202020202888888888888080808083A
:103A30000808080808080808080808080808080806
:103A40000202020240000000C539000820202020A8
:103A50002020202020202020202020202020202066
:103A60002020202020202020202020202020202056
:103A70002020202020202020202020202020202046
:103A8000202020202020202020200D0A00000000DF
:103A9000205F2020205F205F5F5F5F202020205F6D
:103AA0005F20205F5F205F2020202020202020201A
:103AB0002020202020202020205F5F5F5F20205FCB
:103AC000202020202020202020205F205F200D0AA1
:103AD000000000007C207C5C20207C20205F203CBB
:103AE00020207C207C20207C207C207C20285F5F84
:103AF0007C207C207C20285F29207C20205F5F5F49
:103B000029207C207C207C207C20205F5F2F207C53
:103B1000207C0D0A000000007C20205C7C207C20A2
:103B20007C5F29207C207C207C5C2F7C207C207C7E
:103B30002F205F5F7C20275F5F2F205F205C20208D
:103B40005C5F5F5F205C7C20275F205C202F205F14
:103B5000205C207C207C0D0A000000007C205C2082
:103B60007C207C20205F205C20207C20205C2F207B
:103B700020285F29205F5F5F205F205F5F205F5FFD
:103B80005F2020202F205F5F5F7C7C207C5F5F2098
:103B900020205F5F5F7C207C207C0D0A00000000FD
:103BA0007C5F7C205C5F7C5F7C205C5F5C207C5F5A
:103BB0007C20207C5F7C5F7C5C5F5F5F7C5F7C2027
:103BC000205C5F5F5F2F20207C5F5F5F5F2F7C5FEB
:103BD0007C207C5F7C5C5F5F5F7C5F7C5F7C0D0A30
:103BE00000000000300000000000000000000000A5
:103BF00000000000000000006E0000000000000057
:103C00000000000000000000000000002C3C000844
:103C10000000002050010000E40600084C3C0008B1
:103C200050010020100500008A2300085142049230
:103C3000010F1624F40054796C657240726F6F7432
:0C3C40003A05FF88390008011B00000055
:04000005080000C12E
:00000001FF
